{
  "_format": "hh-sol-artifact-1",
  "contractName": "nUSDStableCoin",
  "sourceName": "contracts/nUSDStableCoin.sol",
  "abi": [
    {
      "inputs": [],
      "stateMutability": "nonpayable",
      "type": "constructor"
    },
    {
      "anonymous": false,
      "inputs": [
        {
          "indexed": true,
          "internalType": "address",
          "name": "owner",
          "type": "address"
        },
        {
          "indexed": true,
          "internalType": "address",
          "name": "spender",
          "type": "address"
        },
        {
          "indexed": false,
          "internalType": "uint256",
          "name": "value",
          "type": "uint256"
        }
      ],
      "name": "Approval",
      "type": "event"
    },
    {
      "anonymous": false,
      "inputs": [
        {
          "indexed": true,
          "internalType": "address",
          "name": "from",
          "type": "address"
        },
        {
          "indexed": true,
          "internalType": "address",
          "name": "to",
          "type": "address"
        },
        {
          "indexed": false,
          "internalType": "uint256",
          "name": "value",
          "type": "uint256"
        }
      ],
      "name": "Transfer",
      "type": "event"
    },
    {
      "inputs": [
        {
          "internalType": "address",
          "name": "owner",
          "type": "address"
        },
        {
          "internalType": "address",
          "name": "spender",
          "type": "address"
        }
      ],
      "name": "allowance",
      "outputs": [
        {
          "internalType": "uint256",
          "name": "",
          "type": "uint256"
        }
      ],
      "stateMutability": "view",
      "type": "function"
    },
    {
      "inputs": [
        {
          "internalType": "address",
          "name": "spender",
          "type": "address"
        },
        {
          "internalType": "uint256",
          "name": "amount",
          "type": "uint256"
        }
      ],
      "name": "approve",
      "outputs": [
        {
          "internalType": "bool",
          "name": "",
          "type": "bool"
        }
      ],
      "stateMutability": "nonpayable",
      "type": "function"
    },
    {
      "inputs": [
        {
          "internalType": "address",
          "name": "account",
          "type": "address"
        }
      ],
      "name": "balanceOf",
      "outputs": [
        {
          "internalType": "uint256",
          "name": "",
          "type": "uint256"
        }
      ],
      "stateMutability": "view",
      "type": "function"
    },
    {
      "inputs": [],
      "name": "decimals",
      "outputs": [
        {
          "internalType": "uint8",
          "name": "",
          "type": "uint8"
        }
      ],
      "stateMutability": "view",
      "type": "function"
    },
    {
      "inputs": [
        {
          "internalType": "address",
          "name": "spender",
          "type": "address"
        },
        {
          "internalType": "uint256",
          "name": "subtractedValue",
          "type": "uint256"
        }
      ],
      "name": "decreaseAllowance",
      "outputs": [
        {
          "internalType": "bool",
          "name": "",
          "type": "bool"
        }
      ],
      "stateMutability": "nonpayable",
      "type": "function"
    },
    {
      "inputs": [],
      "name": "depositETH",
      "outputs": [],
      "stateMutability": "payable",
      "type": "function"
    },
    {
      "inputs": [],
      "name": "getETHPriceInnUSD",
      "outputs": [
        {
          "internalType": "uint256",
          "name": "",
          "type": "uint256"
        }
      ],
      "stateMutability": "view",
      "type": "function"
    },
    {
      "inputs": [],
      "name": "getTotalSupply",
      "outputs": [
        {
          "internalType": "uint256",
          "name": "",
          "type": "uint256"
        }
      ],
      "stateMutability": "view",
      "type": "function"
    },
    {
      "inputs": [
        {
          "internalType": "address",
          "name": "spender",
          "type": "address"
        },
        {
          "internalType": "uint256",
          "name": "addedValue",
          "type": "uint256"
        }
      ],
      "name": "increaseAllowance",
      "outputs": [
        {
          "internalType": "bool",
          "name": "",
          "type": "bool"
        }
      ],
      "stateMutability": "nonpayable",
      "type": "function"
    },
    {
      "inputs": [],
      "name": "name",
      "outputs": [
        {
          "internalType": "string",
          "name": "",
          "type": "string"
        }
      ],
      "stateMutability": "view",
      "type": "function"
    },
    {
      "inputs": [
        {
          "internalType": "uint256",
          "name": "nUSDAmount",
          "type": "uint256"
        }
      ],
      "name": "redeemETH",
      "outputs": [],
      "stateMutability": "nonpayable",
      "type": "function"
    },
    {
      "inputs": [],
      "name": "symbol",
      "outputs": [
        {
          "internalType": "string",
          "name": "",
          "type": "string"
        }
      ],
      "stateMutability": "view",
      "type": "function"
    },
    {
      "inputs": [],
      "name": "totalSupply",
      "outputs": [
        {
          "internalType": "uint256",
          "name": "",
          "type": "uint256"
        }
      ],
      "stateMutability": "view",
      "type": "function"
    },
    {
      "inputs": [
        {
          "internalType": "address",
          "name": "to",
          "type": "address"
        },
        {
          "internalType": "uint256",
          "name": "amount",
          "type": "uint256"
        }
      ],
      "name": "transfer",
      "outputs": [
        {
          "internalType": "bool",
          "name": "",
          "type": "bool"
        }
      ],
      "stateMutability": "nonpayable",
      "type": "function"
    },
    {
      "inputs": [
        {
          "internalType": "address",
          "name": "from",
          "type": "address"
        },
        {
          "internalType": "address",
          "name": "to",
          "type": "address"
        },
        {
          "internalType": "uint256",
          "name": "amount",
          "type": "uint256"
        }
      ],
      "name": "transferFrom",
      "outputs": [
        {
          "internalType": "bool",
          "name": "",
          "type": "bool"
        }
      ],
      "stateMutability": "nonpayable",
      "type": "function"
    }
  ],
  "bytecode": "0x60806040523480156200001157600080fd5b506040518060400160405280600f81526020017f6e55534420537461626c65436f696e00000000000000000000000000000000008152506040518060400160405280600481526020017f6e5553440000000000000000000000000000000000000000000000000000000081525081600390816200008f919062000379565b508060049081620000a1919062000379565b50505073694aa1769357215de4fac081bf1f309adc325306600560006101000a81548173ffffffffffffffffffffffffffffffffffffffff021916908373ffffffffffffffffffffffffffffffffffffffff16021790555062000460565b600081519050919050565b7f4e487b7100000000000000000000000000000000000000000000000000000000600052604160045260246000fd5b7f4e487b7100000000000000000000000000000000000000000000000000000000600052602260045260246000fd5b600060028204905060018216806200018157607f821691505b60208210810362000197576200019662000139565b5b50919050565b60008190508160005260206000209050919050565b60006020601f8301049050919050565b600082821b905092915050565b600060088302620002017fffffffffffffffffffffffffffffffffffffffffffffffffffffffffffffffff82620001c2565b6200020d8683620001c2565b95508019841693508086168417925050509392505050565b6000819050919050565b6000819050919050565b60006200025a620002546200024e8462000225565b6200022f565b62000225565b9050919050565b6000819050919050565b620002768362000239565b6200028e620002858262000261565b848454620001cf565b825550505050565b600090565b620002a562000296565b620002b28184846200026b565b505050565b5b81811015620002da57620002ce6000826200029b565b600181019050620002b8565b5050565b601f8211156200032957620002f3816200019d565b620002fe84620001b2565b810160208510156200030e578190505b620003266200031d85620001b2565b830182620002b7565b50505b505050565b600082821c905092915050565b60006200034e600019846008026200032e565b1980831691505092915050565b60006200036983836200033b565b9150826002028217905092915050565b6200038482620000ff565b67ffffffffffffffff811115620003a0576200039f6200010a565b5b620003ac825462000168565b620003b9828285620002de565b600060209050601f831160018114620003f15760008415620003dc578287015190505b620003e885826200035b565b86555062000458565b601f19841662000401866200019d565b60005b828110156200042b5784890151825560018201915060208501945060208101905062000404565b868310156200044b578489015162000447601f8916826200033b565b8355505b6001600288020188555050505b505050505050565b611c3180620004706000396000f3fe6080604052600436106100e85760003560e01c806370a082311161008a578063c4e41b2211610059578063c4e41b2214610330578063dab5999c1461035b578063dd62ed3e14610386578063f6326fb3146103c3576100e8565b806370a082311461024e57806395d89b411461028b578063a457c2d7146102b6578063a9059cbb146102f3576100e8565b806323b872dd116100c657806323b872dd14610180578063313ce567146101bd57806339509351146101e8578063525d02b814610225576100e8565b806306fdde03146100ed578063095ea7b31461011857806318160ddd14610155575b600080fd5b3480156100f957600080fd5b506101026103cd565b60405161010f919061113b565b60405180910390f35b34801561012457600080fd5b5061013f600480360381019061013a91906111f6565b61045f565b60405161014c9190611251565b60405180910390f35b34801561016157600080fd5b5061016a610482565b604051610177919061127b565b60405180910390f35b34801561018c57600080fd5b506101a760048036038101906101a29190611296565b61048c565b6040516101b49190611251565b60405180910390f35b3480156101c957600080fd5b506101d26104bb565b6040516101df9190611305565b60405180910390f35b3480156101f457600080fd5b5061020f600480360381019061020a91906111f6565b6104c4565b60405161021c9190611251565b60405180910390f35b34801561023157600080fd5b5061024c60048036038101906102479190611320565b6104fb565b005b34801561025a57600080fd5b506102756004803603810190610270919061134d565b6105c4565b604051610282919061127b565b60405180910390f35b34801561029757600080fd5b506102a061060c565b6040516102ad919061113b565b60405180910390f35b3480156102c257600080fd5b506102dd60048036038101906102d891906111f6565b61069e565b6040516102ea9190611251565b60405180910390f35b3480156102ff57600080fd5b5061031a600480360381019061031591906111f6565b610715565b6040516103279190611251565b60405180910390f35b34801561033c57600080fd5b50610345610738565b604051610352919061127b565b60405180910390f35b34801561036757600080fd5b50610370610747565b60405161037d919061127b565b60405180910390f35b34801561039257600080fd5b506103ad60048036038101906103a8919061137a565b6107e8565b6040516103ba919061127b565b60405180910390f35b6103cb61086f565b005b6060600380546103dc906113e9565b80601f0160208091040260200160405190810160405280929190818152602001828054610408906113e9565b80156104555780601f1061042a57610100808354040283529160200191610455565b820191906000526020600020905b81548152906001019060200180831161043857829003601f168201915b5050505050905090565b60008061046a6108ab565b90506104778185856108b3565b600191505092915050565b6000600254905090565b6000806104976108ab565b90506104a4858285610a7c565b6104af858585610b08565b60019150509392505050565b60006012905090565b6000806104cf6108ab565b90506104f08185856104e185896107e8565b6104eb9190611449565b6108b3565b600191505092915050565b6000610505610747565b9050600081600284610517919061147d565b61052191906114ee565b90508261052d336105c4565b101561056e576040517f08c379a00000000000000000000000000000000000000000000000000000000081526004016105659061156b565b60405180910390fd5b6105783384610d7e565b3373ffffffffffffffffffffffffffffffffffffffff166108fc829081150290604051600060405180830381858888f193505050501580156105be573d6000803e3d6000fd5b50505050565b60008060008373ffffffffffffffffffffffffffffffffffffffff1673ffffffffffffffffffffffffffffffffffffffff168152602001908152602001600020549050919050565b60606004805461061b906113e9565b80601f0160208091040260200160405190810160405280929190818152602001828054610647906113e9565b80156106945780601f1061066957610100808354040283529160200191610694565b820191906000526020600020905b81548152906001019060200180831161067757829003601f168201915b5050505050905090565b6000806106a96108ab565b905060006106b782866107e8565b9050838110156106fc576040517f08c379a00000000000000000000000000000000000000000000000000000000081526004016106f3906115fd565b60405180910390fd5b61070982868684036108b3565b60019250505092915050565b6000806107206108ab565b905061072d818585610b08565b600191505092915050565b6000610742610482565b905090565b600080600560009054906101000a900473ffffffffffffffffffffffffffffffffffffffff1673ffffffffffffffffffffffffffffffffffffffff1663feaf968c6040518163ffffffff1660e01b815260040160a060405180830381865afa1580156107b7573d6000803e3d6000fd5b505050506040513d601f19601f820116820180604052508101906107db91906116aa565b5050509150508091505090565b6000600160008473ffffffffffffffffffffffffffffffffffffffff1673ffffffffffffffffffffffffffffffffffffffff16815260200190815260200160002060008373ffffffffffffffffffffffffffffffffffffffff1673ffffffffffffffffffffffffffffffffffffffff16815260200190815260200160002054905092915050565b6000349050600061087e610747565b9050600060028284610890919061147d565b61089a91906114ee565b90506108a63382610f4b565b505050565b600033905090565b600073ffffffffffffffffffffffffffffffffffffffff168373ffffffffffffffffffffffffffffffffffffffff1603610922576040517f08c379a000000000000000000000000000000000000000000000000000000000815260040161091990611797565b60405180910390fd5b600073ffffffffffffffffffffffffffffffffffffffff168273ffffffffffffffffffffffffffffffffffffffff1603610991576040517f08c379a000000000000000000000000000000000000000000000000000000000815260040161098890611829565b60405180910390fd5b80600160008573ffffffffffffffffffffffffffffffffffffffff1673ffffffffffffffffffffffffffffffffffffffff16815260200190815260200160002060008473ffffffffffffffffffffffffffffffffffffffff1673ffffffffffffffffffffffffffffffffffffffff168152602001908152602001600020819055508173ffffffffffffffffffffffffffffffffffffffff168373ffffffffffffffffffffffffffffffffffffffff167f8c5be1e5ebec7d5bd14f71427d1e84f3dd0314c0f7b2291e5b200ac8c7c3b92583604051610a6f919061127b565b60405180910390a3505050565b6000610a8884846107e8565b90507fffffffffffffffffffffffffffffffffffffffffffffffffffffffffffffffff8114610b025781811015610af4576040517f08c379a0000000000000000000000000000000000000000000000000000000008152600401610aeb90611895565b60405180910390fd5b610b0184848484036108b3565b5b50505050565b600073ffffffffffffffffffffffffffffffffffffffff168373ffffffffffffffffffffffffffffffffffffffff1603610b77576040517f08c379a0000000000000000000000000000000000000000000000000000000008152600401610b6e90611927565b60405180910390fd5b600073ffffffffffffffffffffffffffffffffffffffff168273ffffffffffffffffffffffffffffffffffffffff1603610be6576040517f08c379a0000000000000000000000000000000000000000000000000000000008152600401610bdd906119b9565b60405180910390fd5b610bf18383836110a1565b60008060008573ffffffffffffffffffffffffffffffffffffffff1673ffffffffffffffffffffffffffffffffffffffff16815260200190815260200160002054905081811015610c77576040517f08c379a0000000000000000000000000000000000000000000000000000000008152600401610c6e90611a4b565b60405180910390fd5b8181036000808673ffffffffffffffffffffffffffffffffffffffff1673ffffffffffffffffffffffffffffffffffffffff16815260200190815260200160002081905550816000808573ffffffffffffffffffffffffffffffffffffffff1673ffffffffffffffffffffffffffffffffffffffff168152602001908152602001600020600082825401925050819055508273ffffffffffffffffffffffffffffffffffffffff168473ffffffffffffffffffffffffffffffffffffffff167fddf252ad1be2c89b69c2b068fc378daa952ba7f163c4a11628f55a4df523b3ef84604051610d65919061127b565b60405180910390a3610d788484846110a6565b50505050565b600073ffffffffffffffffffffffffffffffffffffffff168273ffffffffffffffffffffffffffffffffffffffff1603610ded576040517f08c379a0000000000000000000000000000000000000000000000000000000008152600401610de490611add565b60405180910390fd5b610df9826000836110a1565b60008060008473ffffffffffffffffffffffffffffffffffffffff1673ffffffffffffffffffffffffffffffffffffffff16815260200190815260200160002054905081811015610e7f576040517f08c379a0000000000000000000000000000000000000000000000000000000008152600401610e7690611b6f565b60405180910390fd5b8181036000808573ffffffffffffffffffffffffffffffffffffffff1673ffffffffffffffffffffffffffffffffffffffff1681526020019081526020016000208190555081600260008282540392505081905550600073ffffffffffffffffffffffffffffffffffffffff168373ffffffffffffffffffffffffffffffffffffffff167fddf252ad1be2c89b69c2b068fc378daa952ba7f163c4a11628f55a4df523b3ef84604051610f32919061127b565b60405180910390a3610f46836000846110a6565b505050565b600073ffffffffffffffffffffffffffffffffffffffff168273ffffffffffffffffffffffffffffffffffffffff1603610fba576040517f08c379a0000000000000000000000000000000000000000000000000000000008152600401610fb190611bdb565b60405180910390fd5b610fc6600083836110a1565b8060026000828254610fd89190611449565b92505081905550806000808473ffffffffffffffffffffffffffffffffffffffff1673ffffffffffffffffffffffffffffffffffffffff168152602001908152602001600020600082825401925050819055508173ffffffffffffffffffffffffffffffffffffffff16600073ffffffffffffffffffffffffffffffffffffffff167fddf252ad1be2c89b69c2b068fc378daa952ba7f163c4a11628f55a4df523b3ef83604051611089919061127b565b60405180910390a361109d600083836110a6565b5050565b505050565b505050565b600081519050919050565b600082825260208201905092915050565b60005b838110156110e55780820151818401526020810190506110ca565b60008484015250505050565b6000601f19601f8301169050919050565b600061110d826110ab565b61111781856110b6565b93506111278185602086016110c7565b611130816110f1565b840191505092915050565b600060208201905081810360008301526111558184611102565b905092915050565b600080fd5b600073ffffffffffffffffffffffffffffffffffffffff82169050919050565b600061118d82611162565b9050919050565b61119d81611182565b81146111a857600080fd5b50565b6000813590506111ba81611194565b92915050565b6000819050919050565b6111d3816111c0565b81146111de57600080fd5b50565b6000813590506111f0816111ca565b92915050565b6000806040838503121561120d5761120c61115d565b5b600061121b858286016111ab565b925050602061122c858286016111e1565b9150509250929050565b60008115159050919050565b61124b81611236565b82525050565b60006020820190506112666000830184611242565b92915050565b611275816111c0565b82525050565b6000602082019050611290600083018461126c565b92915050565b6000806000606084860312156112af576112ae61115d565b5b60006112bd868287016111ab565b93505060206112ce868287016111ab565b92505060406112df868287016111e1565b9150509250925092565b600060ff82169050919050565b6112ff816112e9565b82525050565b600060208201905061131a60008301846112f6565b92915050565b6000602082840312156113365761133561115d565b5b6000611344848285016111e1565b91505092915050565b6000602082840312156113635761136261115d565b5b6000611371848285016111ab565b91505092915050565b600080604083850312156113915761139061115d565b5b600061139f858286016111ab565b92505060206113b0858286016111ab565b9150509250929050565b7f4e487b7100000000000000000000000000000000000000000000000000000000600052602260045260246000fd5b6000600282049050600182168061140157607f821691505b602082108103611414576114136113ba565b5b50919050565b7f4e487b7100000000000000000000000000000000000000000000000000000000600052601160045260246000fd5b6000611454826111c0565b915061145f836111c0565b92508282019050808211156114775761147661141a565b5b92915050565b6000611488826111c0565b9150611493836111c0565b92508282026114a1816111c0565b915082820484148315176114b8576114b761141a565b5b5092915050565b7f4e487b7100000000000000000000000000000000000000000000000000000000600052601260045260246000fd5b60006114f9826111c0565b9150611504836111c0565b925082611514576115136114bf565b5b828204905092915050565b7f496e73756666696369656e74206e5553442062616c616e636500000000000000600082015250565b60006115556019836110b6565b91506115608261151f565b602082019050919050565b6000602082019050818103600083015261158481611548565b9050919050565b7f45524332303a2064656372656173656420616c6c6f77616e63652062656c6f7760008201527f207a65726f000000000000000000000000000000000000000000000000000000602082015250565b60006115e76025836110b6565b91506115f28261158b565b604082019050919050565b60006020820190508181036000830152611616816115da565b9050919050565b600069ffffffffffffffffffff82169050919050565b61163c8161161d565b811461164757600080fd5b50565b60008151905061165981611633565b92915050565b6000819050919050565b6116728161165f565b811461167d57600080fd5b50565b60008151905061168f81611669565b92915050565b6000815190506116a4816111ca565b92915050565b600080600080600060a086880312156116c6576116c561115d565b5b60006116d48882890161164a565b95505060206116e588828901611680565b94505060406116f688828901611695565b935050606061170788828901611695565b92505060806117188882890161164a565b9150509295509295909350565b7f45524332303a20617070726f76652066726f6d20746865207a65726f2061646460008201527f7265737300000000000000000000000000000000000000000000000000000000602082015250565b60006117816024836110b6565b915061178c82611725565b604082019050919050565b600060208201905081810360008301526117b081611774565b9050919050565b7f45524332303a20617070726f766520746f20746865207a65726f20616464726560008201527f7373000000000000000000000000000000000000000000000000000000000000602082015250565b60006118136022836110b6565b915061181e826117b7565b604082019050919050565b6000602082019050818103600083015261184281611806565b9050919050565b7f45524332303a20696e73756666696369656e7420616c6c6f77616e6365000000600082015250565b600061187f601d836110b6565b915061188a82611849565b602082019050919050565b600060208201905081810360008301526118ae81611872565b9050919050565b7f45524332303a207472616e736665722066726f6d20746865207a65726f20616460008201527f6472657373000000000000000000000000000000000000000000000000000000602082015250565b60006119116025836110b6565b915061191c826118b5565b604082019050919050565b6000602082019050818103600083015261194081611904565b9050919050565b7f45524332303a207472616e7366657220746f20746865207a65726f206164647260008201527f6573730000000000000000000000000000000000000000000000000000000000602082015250565b60006119a36023836110b6565b91506119ae82611947565b604082019050919050565b600060208201905081810360008301526119d281611996565b9050919050565b7f45524332303a207472616e7366657220616d6f756e742065786365656473206260008201527f616c616e63650000000000000000000000000000000000000000000000000000602082015250565b6000611a356026836110b6565b9150611a40826119d9565b604082019050919050565b60006020820190508181036000830152611a6481611a28565b9050919050565b7f45524332303a206275726e2066726f6d20746865207a65726f2061646472657360008201527f7300000000000000000000000000000000000000000000000000000000000000602082015250565b6000611ac76021836110b6565b9150611ad282611a6b565b604082019050919050565b60006020820190508181036000830152611af681611aba565b9050919050565b7f45524332303a206275726e20616d6f756e7420657863656564732062616c616e60008201527f6365000000000000000000000000000000000000000000000000000000000000602082015250565b6000611b596022836110b6565b9150611b6482611afd565b604082019050919050565b60006020820190508181036000830152611b8881611b4c565b9050919050565b7f45524332303a206d696e7420746f20746865207a65726f206164647265737300600082015250565b6000611bc5601f836110b6565b9150611bd082611b8f565b602082019050919050565b60006020820190508181036000830152611bf481611bb8565b905091905056fea2646970667358221220ce27d3d3cde3ac668d292e47017355494d1001ae447977a0cc0c956be381d7b364736f6c63430008120033",
  "linkReferences": {},
  "deployedLinkReferences": {}
}